:100000000C9476010C949E010C949E010C949E011C
:100010000C949E010C949E010C949E010C949E01E4
:100020000C949E010C949E010C944E0A0C94D90AD7
:100030000C949E010C949E010C949E010C949E01C4
:100040000C949E010C949E010C949E010C949E01B4
:100050000C949E010C949E010C949E010C946303DD
:100060000C949E010C949E010C949E010C949E0194
:100070000C949E010C949E010C949E010C949E0184
:100080000C949E010C949E010C949E010C949E0174
:100090000C949E010C949E010C949E010C949E0164
:1000A0000C949E010C949E010C949E010000000093
:1000B000240027002A002D00300000000000250049
:1000C00028002B002E003100000000002300260035
:1000D00029002C002F000404040404030405020278
:1000E00002020403020202020606060606060404D1
:1000F00002020204040802011040804010204080E7
:10010000408008020401804020100201108010206D
:1001100040400000000200080E0000030401000B34
:100120000000070605040100080A0B0C0D09080B66
:1001300000020202010009040000010202000005A1
:1001400024001001052401010104240206052406EF
:1001500000010705810310004009040100020A00A4
:10016000000007050202400000070583024000006E
:1001700005010904A10185030509190129201500BC
:1001800025017501952055006500810205021500C5
:1001900026FF00A10009BB09BA750895028102C0BB
:1001A00005010939150025073500463B0165147521
:1001B00004950181020939150025073500463B01E8
:1001C0006514750495018102150026FF0075080964
:1001D00001A1000930093109320933093409359583
:1001E000068102C0C00904020001030000000921C9
:1001F0000101000122750007058403400001000091
:100200000000000000002A2B280000000000000071
:1002100000000000000000000000000000002C9E14
:10022000B4A0A1A2A434A6A7A5AE362D3738271EA8
:100230001F20212223242526B333B62EB7B89F844E
:1002400085868788898A8B8C8D8E8F9091929394E6
:1002500095969798999A9B9C9D2F3130A3AD350424
:1002600005060708090A0B0C0D0E0F1011121314C6
:1002700015161718191A1B1C1DAFB1B0B5000403D1
:1002800009042203550053004200200049004F009A
:10029000200042006F006100720064002000200016
:1002A00020002000180355006E006B006E006F00E8
:1002B00077006E00200020002000200012010002C4
:1002C00000000040BA260280000101020001120174
:1002D000000202000040BA26028000010102000173
:1002E00000C18081C1007F057D068A0911241FBEDF
:1002F000CFEFDAE0DEBFCDBF11E0A0E0B1E0EEEB82
:10030000F9E102C005900D92AA3CB107D9F712E0BD
:10031000AAECB1E001C01D92AA34B107E1F712E0E6
:10032000CCEED2E004C02297FE010E94A20CC63E91
:10033000D107C9F70E94CB070C94DD0C0C94000088
:10034000A0E0B0E0E6EAF1E00C94AE0CEC01A8808D
:10035000B980CA80DB80A114B104C104D10441F486
:1003600084E2A82E89EDB82E8BE5C82E87E0D82E22
:10037000C601B5012DE133EF41E050E00E94850C4C
:1003800027EA31E440E050E00E94440C7B018C01FC
:10039000C601B5012DE133EF41E050E00E94850C2C
:1003A000CA01B9012CEE34EF4FEF5FEF0E94440C0D
:1003B0006E0D7F1D801F911F97FF04C0615070401C
:1003C00080409048688379838A839B839B01AC013A
:1003D0005F77B901CA01CDB7DEB7EAE00C94CA0C69
:1003E0000E94A00108958BE991E00E94A001089568
:1003F00060939B0170939C0180939D0190939E015B
:1004000008956FEF70E080E090E00E94220C60930E
:10041000CA016FEF70E080E090E00E94220C6093D0
:10042000CB016FEF70E080E090E00E94220C6093BF
:10043000CC016FEF70E080E090E00E94220C6093AE
:10044000CD016FEF70E080E090E00E94220C60939D
:10045000CE016FEF70E080E090E00E94220C60938C
:10046000CF016FEF70E080E090E00E94220C60937B
:10047000D1018091D4019091D501A091D601B09184
:10048000D701880F991FAA1FBB1F8093D401909397
:10049000D501A093D601B093D7010097A105B1056E
:1004A00061F481E090E0A0E0B0E08093D40190930B
:1004B000D501A093D601B093D7018091D2018F5F6F
:1004C0008093D2018A3010F01092D20189E090918D
:1004D000D201891B8093D3018091D0018F5F8093DB
:1004E000D00187FF03C08DE061E002C08DE060E0D5
:1004F0000E94010585E292E06091CA014AE050E065
:100500000E94AF0885E292E060E071E00E94C108BD
:1005100085E292E06091CB014AE050E00E94AF0892
:1005200085E292E064E071E00E94C10885E292E019
:100530006091CC014AE050E00E94AF0885E292E071
:1005400068E071E00E94C10885E292E06091CD010F
:100550004AE050E00E94AF0885E292E06CE071E072
:100560000E94C10885E292E06091CE014AE050E02D
:100570000E94AF0885E292E060E171E00E94C1084C
:1005800085E292E06091CF014AE050E00E94AF081E
:1005900085E292E064E171E00E94C10885E292E0A8
:1005A0006091D0014AE050E00E94AF0885E292E0FD
:1005B00068E171E00E94C10885E292E06091D1019A
:1005C0004AE050E00E94AF0885E292E06CE171E001
:1005D0000E94C10885E292E06091D2014AE050E0B9
:1005E0000E94AF0885E292E060E271E00E94C108DB
:1005F00085E292E06091D3014AE050E00E94AF08AA
:1006000085E292E064E271E00E94C1084091D40169
:100610005091D5016091D6017091D70185E292E0A9
:1006200022E030E00E94A00885E292E068E271E0FA
:100630000E94C10880E492E06AEC71E00E947207B7
:100640006CED75E080E090E00E94AB0308950F939D
:100650001F9305E212E0C80160E875E20E943405CC
:1006600060E47FE180E090E00E94AB03C8016BE2B0
:1006700071E00E94C408C80164E371E00E94C408EC
:100680008DE061E00E9464041092CA011092CB01D7
:100690001092CC011092CD011092CE011092CF0198
:1006A0001092D0011092D1011092D2011092D30178
:1006B0001092D4011092D5011092D6011092D70158
:1006C0001F910F9108951F920F920FB60F92112450
:1006D0002F933F938F939F93AF93BF938091DC01B0
:1006E0009091DD01A091DE01B091DF013091E00138
:1006F0000196A11DB11D232F2D5F2D3720F02D5701
:100700000196A11DB11D2093E0018093DC0190931F
:10071000DD01A093DE01B093DF018091D8019091BB
:10072000D901A091DA01B091DB010196A11DB11DA3
:100730008093D8019093D901A093DA01B093DB01A3
:10074000BF91AF919F918F913F912F910F900FBECD
:100750000F901F9018959B01AC017FB7F894809182
:10076000D8019091D901A091DA01B091DB0166B571
:10077000A89B05C06F3F19F00196A11DB11D7FBF59
:10078000BA2FA92F982F8827860F911DA11DB11D63
:1007900062E0880F991FAA1FBB1F6A95D1F7BC01A1
:1007A0002DC0FFB7F8948091D8019091D901A09104
:1007B000DA01B091DB01E6B5A89B05C0EF3F19F067
:1007C0000196A11DB11DFFBFBA2FA92F982F882711
:1007D0008E0F911DA11DB11DE2E0880F991FAA1F68
:1007E000BB1FEA95D1F7861B970B885E9340C8F232
:1007F000215030404040504068517C4F2115310518
:100800004105510571F60895789484B5826084BDE0
:1008100084B5816084BD85B5826085BD85B5816004
:1008200085BDEEE6F0E0808181608083E1E8F0E064
:100830001082808182608083808181608083E0E893
:10084000F0E0808181608083E1EBF0E08081846072
:100850008083E0EBF0E0808181608083E1E9F0E07B
:10086000808182608083808181608083E0E9F0E024
:10087000808181608083E1ECF0E08081846080830E
:10088000808182608083808181608083E3ECF0E0FE
:10089000808181608083E0ECF0E0808182608083F1
:1008A000E2ECF0E0808181608083EAE7F0E0808123
:1008B0008460808380818260808380818160808386
:1008C0008081806880830895CF93DF93482F50E024
:1008D000CA018C509F4FFC0134914A525F4FFA017C
:1008E0008491882369F190E0880F991FFC01E455F9
:1008F000FF4FA591B491FC01E654FF4FC591D491EF
:10090000662351F42FB7F8948C91932F90958923F7
:100910008C93888189230BC0623061F42FB7F894DF
:100920008C91932F909589238C938881832B888336
:100930002FBF06C09FB7F8948C91832B8C939FBFD9
:10094000DF91CF9108958730C1F1883080F48330F2
:10095000F9F0843030F4813029F1823009F050C050
:1009600024C08430C9F0863009F04AC022C08A30E1
:1009700091F18B3030F4883031F1893009F040C08A
:1009800026C08C3091F18C3060F18E30C9F533C0C7
:10099000809180008F7703C0809180008F7D80934D
:1009A0008000089584B58F7702C084B58F7D84BDA3
:1009B00008958091B0008F7703C08091B0008F7D43
:1009C0008093B0000895809190008F7707C0809148
:1009D00090008F7D03C080919000877F809390006E
:1009E00008958091C0008F7703C08091C0008F7DF3
:1009F0008093C00008958091C200877F8093C200D9
:100A00000895FF920F931F93F62E482F50E0CA01CE
:100A10008E5E9E4FFC012491CA018C509F4FFC01B9
:100A200014914A525F4FFA0104910023C9F0222326
:100A300019F0822F0E94A304E02FF0E0EE0FFF1FB9
:100A4000E654FF4FA591B4919FB7F894FF2021F48D
:100A50008C911095812302C08C91812B8C939FBF28
:100A60001F910F91FF9008950895209121023091D8
:100A700022028091230290912402281B390B2F73AC
:100A80003070C90108952091210230912202809195
:100A90002302909124022817390719F42FEF3FEF12
:100AA00009C0E0912302F0912402EF51FE4F8081B2
:100AB000282F30E0C90108952091210230912202AF
:100AC00080912302909124022817390719F42FEFFF
:100AD0003FEF13C0E0912302F0912402EF51FE4F4B
:100AE0002081809123029091240201968F7390704F
:100AF000909324028093230230E0C901089510925C
:100B000028021092270288EE93E0A0E0B0E08093E4
:100B1000290290932A02A0932B02B0932C028DEA13
:100B200091E0909326028093250208950F931F93DE
:100B3000DF93CF930F92CDB7DEB78C01698380919D
:100B4000A601882369F083E0BE016F5F7F4F41E01B
:100B500050E00E94A9091816190614F49C0107C058
:100B600081E090E0F8019383828320E030E0C901C6
:100B70000F90CF91DF911F910F91089583E00E9414
:100B80008009089582E00E940B09482F20912102DC
:100B9000309122022F5F3F4F2F73307080912302DC
:100BA000909124022817390759F0E0912102F09121
:100BB0002202EF51FE4F4083309322022093210204
:100BC0000895FC0180818E5F808380E86EE271E091
:100BD00042E450E00E9424090895FC018181908143
:100BE000913A59F4813209F04CC080E06FE971E02C
:100BF00047E050E00E94240942C0913209F041C010
:100C0000803239F48FE991E067E070E00E94680972
:100C100036C0823209F035C082818093A60180916E
:100C20009F019091A001A091A101B091A201805BD0
:100C30009440A040B04019F58091A60180FD12C0FB
:100C400087E797E790930108809300082BE088E1FD
:100C500090E00FB6F894A895809360000FBE2093A3
:100C600060000DC088E10FB6F89480936000109288
:100C700060000FBEA895109201081092000881E054
:100C8000089580E00895FC0191818081813A31F4DA
:100C9000913089F080E0933089F40DC0813269F49D
:100CA0009B3021F482818093A70105C09A3029F4FA
:100CB00082818093A80181E0089580E00895EF92F9
:100CC000FF920F931F938C01E62EDC01ED91FC91B6
:100CD0000480F581E02D0995F82ED801ED91FC9165
:100CE0000680F781E02DC8016E2D09958F2D90E0CB
:100CF0001F910F91FF90EF90089510923302109280
:100D00003702109236028FEB91E090933502809378
:100D100034020895EF92FF920F931F93DF93CF93C6
:100D20000F92CDB7DEB789838B017A0184E0BE01D3
:100D30006F5F7F4F41E050E00E94A90984E4B80151
:100D4000A7010E94A9090F90CF91DF911F910F91E8
:100D5000FF90EF90089582E048E050E00E948A06FC
:100D60000895FC011682178210861186128613865A
:100D700014823496BF010E94AB060895DC016838E6
:100D800010F0685829C0E62FF0E067FF13C0E05864
:100D9000F04081E090E002C0880F991FEA95E2F7E9
:100DA000809514962C911497282314962C931497BD
:100DB00060E012C0E250FE4F6491662319F420E017
:100DC00030E01DC067FF08C014968C9114978D7F8A
:100DD00014968C9314976F77FD0190E0662321F0B1
:100DE0008681861709F416829F5F31969630B1F797
:100DF000CD011496BD010E94AB0621E030E0C9018F
:100E00000895CF93DF93DC01683810F0685825C04F
:100E1000E62FF0E067FF12C0E058F04081E090E07C
:100E200002C0880F991FEA95E2F714962C91149747
:100E3000282B14962C93149760E00FC0E250FE4FBD
:100E400064916623D9F167FF08C014968C911497BA
:100E5000826014968C9314976F7716968C911697E0
:100E60008617A9F117968C911797861781F1189616
:100E70008C911897861759F119968C9119978617A6
:100E800031F11A968C911A97861709F11B968C915D
:100E90001B978617E1F0ED01E0E0F0E09E2F8E81D8
:100EA000882321F4EA0FFB1F668306C09F5F3196FB
:100EB0002196E630F10591F7963049F481E090E013
:100EC00013969C938E93129720E030E007C0CD01DB
:100ED0001496BD010E94AB0621E030E0C901DF910C
:100EE000CF910895DF93CF93CDB7DEB72D970FB68F
:100EF000F894DEBF0FBECDBFFB0182859385A4852C
:100F0000B5858983292F3A2F4B2F55272A839D0199
:100F1000442755272B838B2F9927AA27BB278C8300
:100F200086818D8387818E8381858295807F908560
:100F3000892B8F83808188878181898782818A87B5
:100F400083818B8784818C8785818D8783E0BE0137
:100F50006F5F7F4F4DE050E00E948A062D960FB6DE
:100F6000F894DEBF0FBECDBFCF91DF91089580E82A
:100F700060E771E045E750E00E9424090895FC0114
:100F800080818F5F808380E865EE71E049E150E009
:100F90000E9424090895CF93DF930E94040489E4FA
:100FA00092E00E948B090E942703C0E0D0E00E94DB
:100FB00001022097E1F30E940000F9CFCF92DF9267
:100FC000EF92FF920F931F93CF93DF937C016B01FE
:100FD0008A01C0E0D0E00FC0D6016D916D01D7014C
:100FE000ED91FC910190F081E02DC7010995C80FAA
:100FF000D91F015010400115110571F7CE01DF9185
:10100000CF911F910F91FF90EF90DF90CF900895B7
:10101000EF92FF920F931F938C01DC01ED91FC91F5
:101020000190F081E02D6DE009957C01D801ED91F2
:10103000FC910190F081E02DC8016AE009959C01C6
:101040002E0D3F1DC9011F910F91FF90EF90089544
:10105000CF93DF93DB010D900020E9F71197A61BDA
:10106000B70BEC01E881F9810280F381E02DAD013D
:101070000995DF91CF9108954F925F927F928F9261
:101080009F92AF92BF92CF92DF92EF92FF920F9317
:101090001F93DF93CF93CDB7DEB7A1970FB6F89428
:1010A000DEBF0FBECDBF2C01742ECB01223008F461
:1010B0002AE019A231E2C32ED12CCC0EDD1E822EE5
:1010C0009924AA24BB24672D752FA50194010E94A1
:1010D000630C79018A01C801B701A50194010E943E
:1010E000440C472D461B0894C108D1084A3014F41B
:1010F000405D01C0495CF6014083E114F104010543
:10110000110521F07E2C5F2DC801DDCFC201B60193
:101110000E942808A1960FB6F894DEBF0FBECDBF7F
:10112000CF91DF911F910F91FF90EF90DF90CF90C3
:10113000BF90AF909F908F907F905F904F90089559
:10114000DC012115310541F4ED91FC910190F08114
:10115000E02D642F099508950E943C080895EF92B0
:10116000FF920F931F939A01E62EFF2400E010E0F8
:10117000B801A7010E94A0081F910F91FF90EF9066
:1011800008950E9428080895EF92FF920F931F93ED
:101190007C010E9428088C01C7010E940808080FE2
:1011A000191FC8011F910F91FF90EF900895282FEC
:1011B000809143028823C1F057FF1AC015C02898B8
:1011C000909342028091F1008193E217F307B9F7FF
:1011D0004115510539F08091F200882319F48BE60E
:1011E0008093E800AFBF02C04FEF5FEFCA010895E0
:1011F000AFB7F89427702093E9008091F200282F70
:1012000030E0241735070CF4A901FB019B01240FE2
:10121000311D94E6DACFDF93CF930F92CDB7DEB7CF
:10122000BE016F5F7F4F41E050E00E94D7080197F9
:1012300019F02FEF3FEF03C08981282F30E0C9015B
:101240000F90CF91DF910895FF920F931F93F82E87
:10125000142F052F4091460250914702212F302F25
:10126000C901DC01FB016EEF29C0F7FE02C09491B9
:1012700001C0908120914402309145022417350726
:10128000ACF48091E8008570E1F38091E80082FF82
:1012900003C02FEF3FEF17C09093F100C9010196F3
:1012A0008F739070892B11F46093E8002F5F3F4F8C
:1012B0003093450220934402119731961097A9F676
:1012C000812F902F9C01C9011F910F91FF900895CC
:1012D0009C018091E80082FFFCCFF901260F311DAF
:1012E00003C08091F1008193E217F307D1F72898AA
:1012F00084E6809342028BEF8093E800CB0108954F
:101300008093E9008091F200882319F08AE38093AA
:10131000E800089508951092430281E08093D70079
:1013200080EA8093D80082E189BD09B400FEFDCF38
:1013300061E070E080E090E00E94AB0380E9809380
:10134000D8008CE08093E2001092E000559A209A39
:1013500008955F926F927F928F929F92AF92BF9209
:10136000CF92DF92EF92FF920F931F93CF93DF9371
:10137000E82E842E752E80914302882371F18B0113
:10138000242F352FC901EC017AEFF72E67E0962E56
:101390009E2050E4552E8E2D90E040E2A42EB12CDC
:1013A000A822B9223AE3632E20E4C22ED12CC8220F
:1013B000D92258C09FB7F8949092E9008091E80034
:1013C00085FD02C020E004C08091F200252D281B7D
:1013D0009FBF222361F4FA9419F42FEF3FEF4DC021
:1013E00061E070E080E090E00E94AB033BC0822FA0
:1013F00090E0C817D9070CF42C2FC21BD1094FB7A6
:10140000F8949092E900A114B10421F406C010925E
:10141000F10021502223D9F719C0E7FC03C0F801DD
:10142000922F10C0C801322F06C0FC010196E49132
:10143000E093F10031503323C1F706C081918093CE
:10144000F10091509923D1F7020F111D8091E8000E
:1014500085FF05C0209729F4C114D10411F06092D2
:10146000E8004FBF209709F0A5CF5D9884E68093F0
:101470004102282D372DC9019C01C901DF91CF916F
:101480001F910F91FF90EF90DF90CF90BF90AF90A2
:101490009F908F907F906F905F9008951F920F9212
:1014A0000FB60F9211241F932F933F934F935F9387
:1014B0006F937F938F939F93AF93BF93EF93FF931C
:1014C0008091E1001092E100982F83FF0FC01092ED
:1014D000E90081E08093EB001092EC0082E38093BE
:1014E000ED001092430288E08093F00092FF36C036
:1014F00083E08093E9008091F200882349F08AE339
:101500008093E80005C085E292E00E94C20501C018
:1015100012E09FB7F8941093E9008091F2009FBF0A
:10152000882389F780914102882351F080914102FC
:1015300081508093410280914102882309F45D9A91
:1015400080914202882351F0809142028150809321
:10155000420280914202882309F4289AFF91EF9178
:10156000BF91AF919F918F917F916F915F914F91BB
:101570003F912F911F910F900FBE0F901F901895C4
:101580000F931F93DF93CF930F92CDB7DEB71982DE
:101590008E010F5F1F4FC8010E94E105C8010E9424
:1015A000BF07898190E00F90CF91DF911F910F913C
:1015B00008951F920F920FB60F921124EF92FF928F
:1015C0001F932F933F934F935F936F937F938F93CB
:1015D0009F93AF93BF93EF93FF93DF93CF93CDB7D9
:1015E000DEB76197DEBFCDBF1092E9008091E800C1
:1015F00083FF0FC1FE0131969E01275F3F4F03C05D
:101600008091F1008193E217F307D1F7289884E6DF
:101610008093420282EF8093E800998197FF05C092
:101620008091E80080FFFCCF03C08EEF8093E8003C
:10163000292F30E0C90180769070892B09F0C2C053
:101640008A81882329F41092F1001092F100D6C00B
:10165000813009F4D3C0833009F4D0C0853049F417
:101660008091E80080FFFCCF8B8180688093E3004D
:10167000C5C0863009F07CC01C81EF80F884123030
:10168000C1F51092E90010924502109244021092A6
:101690004702109246020E94C00A99E0FE01399664
:1016A000DF01292F1D922A95E9F799871A8791E082
:1016B0009E8790E8988B9AEF998B20914402309105
:1016C0004502275F3F4F3C872B878D871092E900AB
:1016D0001092450210924402F0924702E0924602B4
:1016E00080E0BF0149E050E00E9424090E94C00A46
:1016F00085C01092E9001092450210924402F092C7
:101700004702E0924602123241F482E290E00E94E7
:10171000B707892B09F476C071C0113079F488E0DD
:10172000E816F10419F481E08093480280914802A0
:10173000882309F06BC0ECEBF2E013C0133009F022
:1017400061C08B81882319F4EEE7F2E00AC0823091
:1017500019F4E2E8F2E005C0813009F053C0E4EA90
:10176000F2E0449180E8BF0150E00E94240946C0A5
:10177000873009F447C0883021F481E08093F1007C
:101780003DC08930D9F523703070232BD9F5E1EEB7
:10179000F2E091E031E026E39093E9003093EB0032
:1017A00084918093EC002093ED009F5F31969530FB
:1017B00099F78EE78093EA001092EA008B8180937C
:1017C00043021CC08F8198851092E9001092450257
:1017D0001092440290934702809346028D818823A1
:1017E00029F4CE0101960E94ED0506C0823051F425
:1017F000CE0101960E944306882321F08EEF80934C
:10180000E80007C081E28093EB0003C0EEECF2E059
:10181000A8CF6196DEBFCDBFCF91DF91FF91EF9151
:10182000BF91AF919F918F917F916F915F914F91F8
:101830003F912F911F91FF90EF900F900FBE0F904F
:101840001F901895EF92FF920F931F937B018C01CD
:10185000611571058105910529F420E030E040E033
:1018600050E00BC00E94F301A80197010E94850C73
:10187000AC01CB01DA019C01AD01B901CA011F9194
:101880000F91FF90EF900895629FD001739FF00138
:10189000829FE00DF11D649FE00DF11D929FF00D00
:1018A000839FF00D749FF00D659FF00D9927729F37
:1018B000B00DE11DF91F639FB00DE11DF91FBD01C2
:1018C000CF0111240895A1E21A2EAA1BBB1BFD0112
:1018D0000DC0AA1FBB1FEE1FFF1FA217B307E4070F
:1018E000F50720F0A21BB30BE40BF50B661F771F67
:1018F000881F991F1A9469F7609570958095909547
:101900009B01AC01BD01CF01089597FB092E05266F
:101910000ED057FD04D0D7DF0AD0001C38F4509504
:101920004095309521953F4F4F4F5F4F0895F6F703
:1019300090958095709561957F4F8F4F9F4F08953B
:10194000EE0FFF1F0590F491E02D09942F923F9226
:101950004F925F926F927F928F929F92AF92BF92BF
:10196000CF92DF92EF92FF920F931F93CF93DF936B
:10197000CDB7DEB7CA1BDB0B0FB6F894DEBF0FBEC8
:10198000CDBF09942A88398848885F846E847D8415
:101990008C849B84AA84B984C884DF80EE80FD8017
:1019A0000C811B81AA81B981CE0FD11D0FB6F8948D
:0E19B000DEBF0FBECDBFED010895F894FFCF4E
:1019BE0058092000590920005A09200078092000F2
:1019CE00790920007A0920005409200052092000CC
:1019DE004809200068092000420A004A6F795374B2
:1019EE0069636B00784178697320092079417869C1
:1019FE00732009207A4178697320092078526F7418
:101A0E004178697320092079526F74417869732087
:101A1E0009207A526F7441786973200920746872B4
:101A2E006F74746C65200920727564646572200988
:101A3E0020686174537731200920686174537732BE
:101A4E00200920627574746F6E730001000000002F
:101A5E00E10000000000000101000000009605DE1C
:101A6E000735055C054305BE05C205000000005F95
:0A1A7E0006DE070107BE06B10600F0
:00000001FF
